:04000000E9EF5EF0D6
:10BDC6001F0EBE6E12005F0EBE6E1200000149EF1E
:10BDD6005FF08B908B928D948B961200016E01C052
:10BDE60083FF80828094808680961200016E01C057
:10BDF60083FF809280948086809612009B0ECB6E85
:10BE06002F0EBE6E070ECA6E3C0EBD6E12009568F2
:10BE1600809280848086809683BEFCD7000E956EC5
:10BE26001200ECEC5EF002688EEC5FF0026E022807
:10BE3600D8B4FAD78EEC5FF0FF0AD8A4FBD702502D
:10BE460012008096030E036E8A0E026E560EE82EC0
:10BE5600FED7022EFCD7032EFAD7380EF9EC5EF089
:10BE6600030E036E8A0E026E560EE82EFED7022EC3
:10BE7600FCD7032EFAD70F0EF9EC5EF00AEC5FF052
:10BE8600010EF9EC5EF00AEC5FF01200700ED36E54
:10BE9600B468B59E0F0EC16E000E806E000E826EE7
:10BEA600000E836E000E846E000E896E000E8B6E81
:10BEB600000E8C6E000E8D6E000E926EF00E946E5D
:10BEC600000E956E000E966E24EC5FF001EC5FF0AE
:10BED600000E056E000E046E055019E1110E045C8D
:10BEE600D8B015D014EC5FF0066E410E0618D8B423
:10BEF600E6EC5EF0420E0618D8B4E3EC5EF00650AF
:10BF0600F1EC5EF00AEC5FF0044A052AE5D7010E73
:10BF1600F9EC5EF0DDD78B908B828D848B86410E9B
:10BF2600016EEE0EE82EFED7012EFCD700D082B8A9
:10BF360002D0310E120082BA02D0320E120082BC3A
:10BF460002D0330E120082BE02D0410E12008B8048
:10BF56008B928D848B86410E016EEE0EE82EFED7F7
:10BF6600012EFCD700D082B802D0340E120082BA5D
:10BF760002D0350E120082BC02D0360E120082BEEE
:10BF860002D0420E12008B808B828D948B86410EDE
:10BF9600016EEE0EE82EFED7012EFCD700D082B839
:10BFA60002D0370E120082BA02D0380E120082BCBE
:10BFB60002D0390E120082BE02D0430E12008B80D0
:10BFC6008B828D848B96410E016EEE0EE82EFED787
:10BFD600012EFCD700D082B802D02A0E120082BAF7
:10BFE60002D0300E120082BC02D0230E120082BE96
:0ABFF60002D0440E1200FF0E1200EC
:020000040020DA
:08000000FFFFFFFFFFFFFFFF00
:020000040030CA
:0E000000FF081F1EFF8081FF0FC00FE00F40A2
:00000001FF
