:0400000062EF00F0BB
:060008002E8285ED07F0D9
:100018002E80D8CF13F0E8CF14F0E0CF15F0FACF48
:1000280016F0FBCF17F0E9CF18F0EACF19F0E1CFBF
:100038001AF0E2CF1BF0D9CF1CF0DACF1DF0F3CFC6
:100048001EF0F4CF1FF0F6CF20F0F7CF21F0F8CF55
:1000580022F0F5CF23F0F090808A1F0E126E710EF9
:10006800116E1E0EE82EFED7112EFCD7122EFAD7CF
:1000780000D0809A23C0F5FF22C0F8FF21C0F7FF07
:1000880020C0F6FF1FC0F4FF1EC0F3FF1DC0DAFF3B
:100098001CC0D9FF1BC0E2FF1AC0E1FF19C0EAFF6C
:1000A80018C0E9FF17C0FBFF16C0FAFF15C0E0FF34
:1000B80014C0E8FF13C0D8FF2E901000E7EF09F036
:100D000000552050726566657220412042204320C4
:100D10004400496E74726F64756365205073737715
:100D200064005768696368206C6574746572206438
:100D30006F002D446F6F7220556E6C6F636B65642E
:100D40002D00312E556E6C6F636B20322E4C6F630D
:100D50006B00312E446F6F7220322E4C6F674F75CF
:100D6000740057726F6E672050617373776F72648F
:100D700000456E7465722050617373776F72640002
:100D80004F6E6C792074776F206B657973002D44FA
:100D90006F6F72204C6F636B65642D0057656C63D9
:100DA0006F6D6520557365722000416C61726D2016
:100DB0004465616374697600416C61726D204163C2
:100DC00074697665004120746F20476F4261636BE0
:100DD000004279652075736572200000700ED36E35
:100DE000B468B59E0F0EC16EF19ED08EF28EF28C5D
:100DF000F18CF288F09CF18AF086000E806E000E75
:100E0000816E000E826E000E836E000E846E000EE8
:100E1000896E000E8A6E000E8B6E000E8C6E000EB8
:100E20008D6E000E926E070E936EF00E946E000E95
:100E3000956E000E966E39EC09F0FAEC09F0200E72
:100E40000CEC0AF0410AD8B415D0200E0CEC0AF0D4
:100E5000420AD8B40FD0200E0CEC0AF0430AD8B4E2
:100E600009D0200E0CEC0AF0440AD8B403D0FAECF6
:100E700008F0E5D7B6EC09F0710E256E0D0E266E62
:100E80007AEC09F015EC0AF05EEC09F0E806D8B44B
:100E90000BD02FEC0AF0B6EC09F0620E256E0D0EA9
:100EA000266E7AEC09F0CBD7809084922FEC0AF072
:100EB000B6EC09F0AA0E256E0D0E266E7AEC09F03E
:100EC000100E2C6E390E2B6E0E0EE82EFED72B2E2A
:100ED000FCD72C2EFAD72FEC0AF0B6EC09F09C0EBA
:100EE000256E0D0E266E7AEC09F0200E0CEC0AF041
:100EF000C4EC09F01EEC0AF0F1EC09F00AEC08F081
:100F00002D04D8B462EF00F0CFD70600FACF03F07B
:100F1000FBCF04F0E9CF05F0EACF06F0E1CF07F010
:100F2000E2CF08F0D9CF09F0DACF0AF0F3CF0BF017
:100F3000F4CF0CF0F6CF0DF0F7CF0EF0F8CF0FF0A6
:100F4000F5CF10F0F292809A8480060E026E130E96
:100F5000016EAE0EE82EFED7012EFCD7022EFAD778
:100F60008490060E026E130E016EAE0EE82EFED7B2
:100F7000012EFCD7022EFAD78480060E026E130EC5
:100F8000016EAE0EE82EFED7012EFCD7022EFAD748
:100F90008490060E026E130E016EAE0EE82EFED782
:100FA000012EFCD7022EFAD78480060E026E130E95
:100FB000016EAE0EE82EFED7012EFCD7022EFAD718
:100FC0008490060E026E130E016EAE0EE82EFED752
:100FD000012EFCD7022EFAD710C0F5FF0FC0F8FF84
:100FE0000EC0F7FF0DC0F6FF0CC0F4FF0BC0F3FFFF
:100FF0000AC0DAFF09C0D9FF08C0E2FF07C0E1FF5D
:1010000006C0EAFF05C0E9FF04C0FBFF03C0FAFF0A
:101010002E921100000E2D6EA6EC09F0310AD8A414
:101020004CD02FEC0AF024EC0AF0420E256E0D0E87
:10103000266E7AEC09F0A6EC09F0310AD8A41CD08F
:1010400033EC0AF02FEC0AF024EC0AF0320E256E95
:101050000D0E266E7AEC09F01EEC0AF0C50E256E18
:101060000D0E266E7AEC09F0A6EC09F0410AD8A420
:10107000D1D72FEC0AF01200A6EC09F0320AD8A45E
:10108000C9D736EC0AF02FEC0AF024EC0AF08E0EE9
:10109000256E0D0E266E7AEC09F01EEC0AF0C50ED8
:1010A000256E0D0E266E7AEC09F0A6EC09F0410AC9
:1010B000D8A4B0D72FEC0AF01200A6EC09F0320A3F
:1010C000D8A4A8D72FEC0AF0B6EC09F0D10E256E03
:1010D0000D0E266E7AEC09F0200E0CEC0AF0C4EC32
:1010E00009F01EEC0AF0B80E256E0D0E266E7AEC95
:1010F00009F01A0E296E5E0E286E6E0EE82EFED7CF
:10110000282EFCD7292EFAD700D0010E2D6E120002
:101110008B908B828D848B86410E246EEE0EE82E92
:10112000FED7242EFCD700D082B802D0310E120098
:1011300082BA02D0320E120082BC02D0330E1200EC
:1011400082BE02D0410E12008B808B928D848B86E2
:10115000410E246EEE0EE82EFED7242EFCD700D0D2
:1011600082B802D0340E120082BA02D0350E1200BC
:1011700082BC02D0360E120082BE02D0420E120095
:101180008B808B828D948B86410E246EEE0EE82E22
:10119000FED7242EFCD700D082B802D0370E120022
:1011A00082BA02D0380E120082BC02D0390E120070
:1011B00082BE02D0430E12008B808B828D848B9670
:1011C000410E246EEE0EE82EFED7242EFCD700D062
:1011D00082B802D02A0E120082BA02D0300E12005B
:1011E00082BC02D0230E120082BE02D0440E120036
:1011F000FF0E1200000E2A6E000E296EB6EC09F0EA
:10120000220E256E0D0E266E7AEC09F01EEC0AF009
:10121000010E256E0D0E266E7AEC09F0200E276E5B
:10122000A6EC09F003EC0AF02FEC0AF024EC0AF02B
:10123000120E256E0D0E266E7AEC09F01EEC0AF0E9
:10124000800E256E0D0E266E7AEC09F0010E276ECB
:10125000A6EC09F003EC0AF0294A2A2A2A5004E1F4
:10126000020E295CD8A0F2D72FEC0AF024EC0AF089
:1012700012008096030E266E8A0E256E560EE82EFC
:10128000FED7252EFCD7262EFAD7380ED0EC09F043
:10129000030E266E8A0E256E560EE82EFED7252EDC
:1012A000FCD7262EFAD70F0ED0EC09F0B6EC09F0D9
:1012B000010ED0EC09F0B6EC09F01200000E296E18
:1012C000010E0CEC0AF0286EA6EC09F02818D8A440
:1012D00002D0010E1200020E296007D0A6EC09F020
:1012E0002818D8B402D0000E1200292A010E296451
:1012F000E7D7120080820AD025C0F6FF26C0F7FF8C
:101300000800F550C4EC09F0254A262A25C0F6FF4E
:1013100026C0F7FF0800F5500009D8A4EDD7B6ECB9
:1013200009F0120024C0A9FF2550AA6E26C0A8FF0C
:10133000A69EA69CA684F29E550EA76EAA0EA76E28
:10134000A682A6B2FED7F28EA69412002AEC0AF06C
:10135000256888EC08F0256E2528D8B4FAD788ECE3
:1013600008F0FF0AD8A4FBD7255012009568809298
:1013700080848086B40E00D0E82EFDD7809683BE90
:10138000F8D7000E956E1200246E24C083FF808271
:1013900080948086B40E00D0E82EFDD7809612008F
:1013A000246E24C083FF809280948086B40E00D087
:1013B000E82EFDD78096120024C0A9FF2550AA6E02
:1013C000A69CA69EA68000F000F0A85012002D6AF0
:1013D0002E902E92000EF86E0D0EF76E0001EEEFBD
:1013E00006F0B6EC09F0520E256E0D0E266E7AEC64
:1013F00009F012009B0ECB6E2F0EBE6E070ECA6E4A
:101400003C0EBD6E1200286E27C024F0256A28C04D
:1014100026F092EC09F01200266E26C024F0256A10
:10142000DCEC09F0276E27501200848281B48080A2
:10143000A6EC09F00009D8A41200F7D7C00ED0EC32
:1014400009F0B6EC09F01200200ED0EC09F0B6EC71
:1014500009F012008B908B928D948B961200010EE6
:10146000D0EC09F012005F0EBE6E12001F0EBE6EB1
:02147000120068
:020000040020DA
:08000000FFFFFFFFFFFFFFFF00
:020000040030CA
:0E000000FF081F1EFF8081FF0FC00FE00F40A2
:00000001FF
