:0400000062EF00F0BB
:060008002D8285ED07F0DA
:100018002D80D8CF13F0E8CF14F0E0CF15F0FACF49
:1000280016F0FBCF17F0E9CF18F0EACF19F0E1CFBF
:100038001AF0E2CF1BF0D9CF1CF0DACF1DF0F3CFC6
:100048001EF0F4CF1FF0F6CF20F0F7CF21F0F8CF55
:1000580022F0F5CF23F0F090808A1F0E126E710EF9
:10006800116E1E0EE82EFED7112EFCD7122EFAD7CF
:1000780000D0809A23C0F5FF22C0F8FF21C0F7FF07
:1000880020C0F6FF1FC0F4FF1EC0F3FF1DC0DAFF3B
:100098001CC0D9FF1BC0E2FF1AC0E1FF19C0EAFF6C
:1000A80018C0E9FF17C0FBFF16C0FAFF15C0E0FF34
:1000B80014C0E8FF13C0D8FF2D901000DAEF09F044
:100D000000552050726566657220412042204320C4
:100D10004400496E74726F64756365205073737715
:100D200064005768696368206C6574746572206438
:100D30006F002D446F6F7220556E6C6F636B65642E
:100D40002D00312E556E6C6F636B20322E4C6F630D
:100D50006B00312E446F6F7220322E4C6F674F75CF
:100D6000740057726F6E672050617373776F72648F
:100D700000456E7465722050617373776F72640002
:100D80004F6E6C792074776F206B657973002D44FA
:100D90006F6F72204C6F636B65642D0057656C63D9
:100DA0006F6D6520557365722000416C61726D2016
:100DB0004465616374697600416C61726D204163C2
:100DC00074697665004120746F20476F4261636BE0
:100DD000004279652075736572200000700ED36E35
:100DE000B468B59E0F0EC16EF19ED08EF28EF28C5D
:100DF000F18CF288F09CF18AF086000E806E000E75
:100E0000816E000E826E000E836E000E846E000EE8
:100E1000896E000E8A6E000E8B6E000E8C6E000EB8
:100E20008D6E000E926E070E936EF00E946E000E95
:100E3000956E000E966E39EC09F0F7EC09F0200E75
:100E400010EC0AF0410AD8B415D0200E10EC0AF0CC
:100E5000420AD8B40FD0200E10EC0AF0430AD8B4DE
:100E600009D0200E10EC0AF0440AD8B403D0FAECF2
:100E700008F0E5D7B4EC09F0710E256E0D0E266E64
:100E80007AEC09F000EC0AF05EEC09F0E806D8B460
:100E90000BD028EC0AF0B4EC09F0620E256E0D0EB2
:100EA000266E7AEC09F0CBD78090849228EC0AF079
:100EB000B4EC09F0AA0E256E0D0E266E7AEC09F040
:100EC000100E2B6E390E2A6E0E0EE82EFED72A2E2D
:100ED000FCD72B2EFAD728EC0AF0B4EC09F09C0EC4
:100EE000256E0D0E266E7AEC09F0200E10EC0AF03D
:100EF000C2EC09F017EC0AF0EEEC09F00AEC08F08D
:100F00002C04D8B462EF00F0CFD70600FACF03F07C
:100F1000FBCF04F0E9CF05F0EACF06F0E1CF07F010
:100F2000E2CF08F0D9CF09F0DACF0AF0F3CF0BF017
:100F3000F4CF0CF0F6CF0DF0F7CF0EF0F8CF0FF0A6
:100F4000F5CF10F0F292809A8480060E026E130E96
:100F5000016EAE0EE82EFED7012EFCD7022EFAD778
:100F60008490060E026E130E016EAE0EE82EFED7B2
:100F7000012EFCD7022EFAD78480060E026E130EC5
:100F8000016EAE0EE82EFED7012EFCD7022EFAD748
:100F90008490060E026E130E016EAE0EE82EFED782
:100FA000012EFCD7022EFAD78480060E026E130E95
:100FB000016EAE0EE82EFED7012EFCD7022EFAD718
:100FC0008490060E026E130E016EAE0EE82EFED752
:100FD000012EFCD7022EFAD710C0F5FF0FC0F8FF84
:100FE0000EC0F7FF0DC0F6FF0CC0F4FF0BC0F3FFFF
:100FF0000AC0DAFF09C0D9FF08C0E2FF07C0E1FF5D
:1010000006C0EAFF05C0E9FF04C0FBFF03C0FAFF0A
:101010002D921100000E2C6EA4EC09F0310AD8A418
:101020004CD028EC0AF01DEC0AF0420E256E0D0E95
:10103000266E7AEC09F0A4EC09F0310AD8A41CD091
:101040002CEC0AF028EC0AF01DEC0AF0320E256EAA
:101050000D0E266E7AEC09F017EC0AF0C50E256E1F
:101060000D0E266E7AEC09F0A4EC09F0410AD8A422
:10107000D1D728EC0AF01200A4EC09F0320AD8A467
:10108000C9D72FEC0AF028EC0AF01DEC0AF08E0EFE
:10109000256E0D0E266E7AEC09F017EC0AF0C50EDF
:1010A000256E0D0E266E7AEC09F0A4EC09F0410ACB
:1010B000D8A4B0D728EC0AF01200A4EC09F0320A48
:1010C000D8A4A8D728EC0AF0B4EC09F0D10E256E0C
:1010D0000D0E266E7AEC09F0200E10EC0AF0C2EC30
:1010E00009F017EC0AF0B80E256E0D0E266E7AEC9C
:1010F00009F01A0E286E5E0E276E6E0EE82EFED7D1
:10110000272EFCD7282EFAD700D0010E2C6E120005
:101110008B908B828D848B86410E246EEE0EE82E92
:10112000FED7242EFCD700D082B802D0310E120098
:1011300082BA02D0320E120082BC02D0330E1200EC
:1011400082BE02D0410E12008B808B928D848B86E2
:10115000410E246EEE0EE82EFED7242EFCD700D0D2
:1011600082B802D0340E120082BA02D0350E1200BC
:1011700082BC02D0360E120082BE02D0420E120095
:101180008B808B828D948B86410E246EEE0EE82E22
:10119000FED7242EFCD700D082B802D0370E120022
:1011A00082BA02D0380E120082BC02D0390E120070
:1011B00082BE02D0430E12008B808B828D848B9670
:1011C000410E246EEE0EE82EFED7242EFCD700D062
:1011D00082B802D02A0E120082BA02D0300E12005B
:1011E00082BC02D0230E120082BE02D0440E120036
:1011F000FF0E1200000E296E000E286EB4EC09F0EE
:10120000220E256E0D0E266E7AEC09F017EC0AF010
:10121000010E256E0D0E266E7AEC09F0200E266E5C
:10122000A4EC09F009EC0AF028EC0AF01DEC0AF035
:10123000120E256E0D0E266E7AEC09F017EC0AF0F0
:10124000800E256E0D0E266E7AEC09F0010E266ECC
:10125000A4EC09F009EC0AF0284A292A295004E1F3
:10126000020E285CD8A0F2D728EC0AF01DEC0AF098
:1012700012008096030E266E8A0E256E560EE82EFC
:10128000FED7252EFCD7262EFAD7380ECEEC09F045
:10129000030E266E8A0E256E560EE82EFED7252EDC
:1012A000FCD7262EFAD70F0ECEEC09F0B4EC09F0DD
:1012B000010ECEEC09F0B4EC09F01200000E286E1D
:1012C000010E10EC0AF0276EA4EC09F02718D8A440
:1012D00002D0010E1200020E286007D0A4EC09F023
:1012E0002718D8B402D0000E1200282A010E286454
:1012F000E7D7120080820AD025C0F6FF26C0F7FF8C
:101300000800F550C2EC09F0254A262A25C0F6FF50
:1013100026C0F7FF0800F5500009D8A4EDD7B4ECBB
:1013200009F01200256E25C0A9FF24C0A8FFA69EC3
:10133000A69CF29E550EA76EAA0EA76EA682A6B216
:10134000FED7F28EA694120023EC0AF0256888ECF2
:1013500008F0256E2528D8B4FAD788EC08F0FF0AE3
:10136000D8A4FBD72550120095688092808480868F
:10137000B40E00D0E82EFDD7809683BEF8D7000EBD
:10138000956E1200246E24C083FF80828094808634
:10139000B40E00D0E82EFDD780961200246E24C033
:1013A00083FF809280948086B40E00D0E82EFDD713
:1013B000809612002C6A2D902D92000EF86E0D0E64
:1013C000F76E0001EEEF06F0246E24C0A9FFA69C84
:1013D000A69EA68000F000F0A8501200B4EC09F020
:1013E000520E256E0D0E266E7AEC09F012009B0E41
:1013F000CB6E2F0EBE6E070ECA6E3C0EBD6E120077
:10140000848281B48080A4EC09F00009D8A4120081
:10141000F7D7276E27C024F0265092EC09F012006F
:10142000256E2550E4EC09F0266E26501200C00E01
:10143000CEEC09F0B4EC09F01200200ECEEC09F06D
:10144000B4EC09F012008B908B928D948B96120065
:10145000010ECEEC09F012005F0EBE6E12001F0EE0
:04146000BE6E12004A
:020000040020DA
:08000000FFFFFFFFFFFFFFFF00
:020000040030CA
:0E000000FF081F1EFF8081FF0FC00FE00F40A2
:00000001FF
