:0400000062EF00F0BB
:060008002E8286ED07F0D8
:100018002E80D8CF13F0E8CF14F0E0CF15F0FACF48
:1000280016F0FBCF17F0E9CF18F0EACF19F0E1CFBF
:100038001AF0E2CF1BF0D9CF1CF0DACF1DF0F3CFC6
:100048001EF0F4CF1FF0F6CF20F0F7CF21F0F8CF55
:1000580022F0F5CF23F0F090808A1F0E126E710EF9
:10006800116E1E0EE82EFED7112EFCD7122EFAD7CF
:1000780000D0809A23C0F5FF22C0F8FF21C0F7FF07
:1000880020C0F6FF1FC0F4FF1EC0F3FF1DC0DAFF3B
:100098001CC0D9FF1BC0E2FF1AC0E1FF19C0EAFF6C
:1000A80018C0E9FF17C0FBFF16C0FAFF15C0E0FF34
:1000B80014C0E8FF13C0D8FF2E901000E8EF09F035
:100D000000552050726566657220412042204320C4
:100D10004400496E74726F64756365205073737715
:100D200064005768696368206C6574746572206438
:100D30006F002D446F6F7220556E6C6F636B65642E
:100D40002D00312E556E6C6F636B20322E4C6F630D
:100D50006B00312E446F6F7220322E4C6F674F75CF
:100D6000740057726F6E672050617373776F72648F
:100D700000456E7465722050617373776F72640002
:100D80004F6E6C792074776F206B657973002D44FA
:100D90006F6F72204C6F636B65642D0057656C63D9
:100DA0006F6D6520557365722000416C61726D2016
:100DB0004465616374697600416C61726D204163C2
:100DC00074697665004120746F20476F4261636BE0
:100DD000004279652075736572200000700ED36E35
:100DE000B468B59E0F0EC16EF19ED08EF28EF28C5D
:100DF000F08EF188F088F09CF18AF086000E806E0B
:100E0000000E816E000E826E000E836E000E846EE8
:100E1000000E896E000E8A6E000E8B6E000E8C6EB8
:100E2000000E8D6E000E926E070E936EF00E946E95
:100E3000000E956E000E966E3AEC09F0FBEC09F090
:100E4000200E0DEC0AF0410AD8B415D0200E0DEC9E
:100E50000AF0420AD8B40FD0200E0DEC0AF0430A73
:100E6000D8B409D0200E0DEC0AF0440AD8B403D04F
:100E7000FBEC08F0E5D7B7EC09F0710E256E0D0E0E
:100E8000266E7BEC09F016EC0AF05FEC09F0E80640
:100E9000D8B40BD030EC0AF0B7EC09F0620E256E36
:100EA0000D0E266E7BEC09F0CBD78090849230EC4F
:100EB0000AF0B7EC09F0AA0E256E0D0E266E7BEC3B
:100EC00009F0100E2C6E390E2B6E0E0EE82EFED78A
:100ED0002B2EFCD72C2EFAD730EC0AF0B7EC09F009
:100EE0009C0E256E0D0E266E7BEC09F0200E0DEC8F
:100EF0000AF0C5EC09F01FEC0AF0F2EC09F00BEC7B
:100F000008F02D04D8B462EF00F0CFD70600FACF76
:100F100003F0FBCF04F0E9CF05F0EACF06F0E1CF14
:100F200007F0E2CF08F0D9CF09F0DACF0AF0F3CF1B
:100F30000BF0F4CF0CF0F6CF0DF0F7CF0EF0F8CFAA
:100F40000FF0F5CF10F0F092809A8480060E026EBA
:100F5000130E016EAE0EE82EFED7012EFCD7022E28
:100F6000FAD78490060E026E130E016EAE0EE82EB6
:100F7000FED7012EFCD7022EFAD78480060E026E11
:100F8000130E016EAE0EE82EFED7012EFCD7022EF8
:100F9000FAD78490060E026E130E016EAE0EE82E86
:100FA000FED7012EFCD7022EFAD78480060E026EE1
:100FB000130E016EAE0EE82EFED7012EFCD7022EC8
:100FC000FAD78490060E026E130E016EAE0EE82E56
:100FD000FED7012EFCD7022EFAD710C0F5FF0FC0A6
:100FE000F8FF0EC0F7FF0DC0F6FF0CC0F4FF0BC0FA
:100FF000F3FF0AC0DAFF09C0D9FF08C0E2FF07C04B
:10100000E1FF06C0EAFF05C0E9FF04C0FBFF03C023
:10101000FAFF2E921100000E2D6EA7EC09F0310A96
:10102000D8A44CD030EC0AF025EC0AF0420E256E24
:101030000D0E266E7BEC09F0A7EC09F0310AD8A45E
:101040001CD034EC0AF030EC0AF025EC0AF0320E39
:10105000256E0D0E266E7BEC09F01FEC0AF0C50E16
:10106000256E0D0E266E7BEC09F0A7EC09F0410A07
:10107000D8A4D1D730EC0AF01200A7EC09F0320A5C
:10108000D8A4C9D737EC0AF030EC0AF025EC0AF006
:101090008E0E256E0D0E266E7BEC09F01FEC0AF00D
:1010A000C50E256E0D0E266E7BEC09F0A7EC09F03F
:1010B000410AD8A4B0D730EC0AF01200A7EC09F02E
:1010C000320AD8A4A8D730EC0AF0B7EC09F0D10E58
:1010D000256E0D0E266E7BEC09F0200E0DEC0AF04D
:1010E000C5EC09F01FEC0AF0B80E256E0D0E266E49
:1010F0007BEC09F01A0E296E5E0E286E6E0EE82E3D
:10110000FED7282EFCD7292EFAD700D0010E2D6E3F
:1011100012008B908B828D848B86410E246EEE0E96
:10112000E82EFED7242EFCD700D082B802D0310E94
:10113000120082BA02D0320E120082BC02D0330EEC
:10114000120082BE02D0410E12008B808B928D84E1
:101150008B86410E246EEE0EE82EFED7242EFCD791
:1011600000D082B802D0340E120082BA02D0350EFE
:10117000120082BC02D0360E120082BE02D0420E95
:1011800012008B808B828D948B86410E246EEE0E26
:10119000E82EFED7242EFCD700D082B802D0370E1E
:1011A000120082BA02D0380E120082BC02D0390E70
:1011B000120082BE02D0430E12008B808B828D847F
:1011C0008B96410E246EEE0EE82EFED7242EFCD711
:1011D00000D082B802D02A0E120082BA02D0300E9D
:1011E000120082BC02D0230E120082BE02D0440E36
:1011F0001200FF0E1200000E2A6E000E296EB7ECD0
:1012000009F0220E256E0D0E266E7BEC09F01FEC08
:101210000AF0010E256E0D0E266E7BEC09F0200EF5
:10122000276EA7EC09F004EC0AF030EC0AF025EC8C
:101230000AF0120E256E0D0E266E7BEC09F01FECE7
:101240000AF0800E256E0D0E266E7BEC09F0010E65
:10125000276EA7EC09F004EC0AF0294A2A2A2A5042
:1012600004E1020E295CD8A0F2D730EC0AF025EC9C
:101270000AF012008096030E266E8A0E256E560E18
:10128000E82EFED7252EFCD7262EFAD7380ED1EC25
:1012900009F0030E266E8A0E256E560EE82EFED736
:1012A000252EFCD7262EFAD70F0ED1EC09F0B7EC7D
:1012B00009F0010ED1EC09F0B7EC09F01200000EB4
:1012C000296E010E0DEC0AF0286EA7EC09F0281823
:1012D000D8A402D0010E1200020E296007D0A7EC9C
:1012E00009F02818D8B402D0000E1200292A010EE5
:1012F0002964E7D7120080820AD025C0F6FF26C0F5
:10130000F7FF0800F550C5EC09F0254A262A25C04C
:10131000F6FF26C0F7FF0800F5500009D8A4EDD766
:10132000B7EC09F0120024C0A9FF2550AA6E26C010
:10133000A8FFA69EA69CA684F29E550EA76EAA0E96
:10134000A76EA682A6B2FED7F28EA69412002BEC50
:101350000AF0256889EC08F0256E2528D8B4FAD75C
:1013600089EC08F0FF0AD8A4FBD725501200956835
:10137000809280848086B40E00D0E82EFDD78096BF
:1013800083BEF8D7000E956E1200246E24C083FF32
:10139000808280948086B40E00D0E82EFDD780969F
:1013A0001200246E24C083FF809280948086B40E45
:1013B00000D0E82EFDD78096120024C0A9FF25504A
:1013C000AA6EA69CA69EA68000F000F0A85012006F
:1013D0002D6A2E902E92000EF86E0D0EF76E000103
:1013E000EEEF06F0B7EC09F0520E256E0D0E266EEC
:1013F0007BEC09F012009B0ECB6E2F0EBE6E070E1B
:10140000CA6E3C0EBD6E1200286E27C024F0256AFD
:1014100028C026F093EC09F01200266E26C024F0B6
:10142000256ADDEC09F0276E27501200848281B016
:101430008080A7EC09F00009D8A41200F7D7C00EED
:10144000D1EC09F0B7EC09F01200200ED1EC09F054
:10145000B7EC09F012008B908B928D948B96120052
:10146000010ED1EC09F012005F0EBE6E12001F0ECD
:04147000BE6E12003A
:020000040020DA
:08000000FFFFFFFFFFFFFFFF00
:020000040030CA
:0E000000FF081F1EFF8081FF0FC00FE00F40A2
:00000001FF
