:04000000B6EF09F05E
:100D000000552050726566657220412042204320C4
:100D10004400496E74726F64756365205073737715
:100D200064005768696368206C6574746572206438
:100D30006F002D446F6F7220556E6C6F636B65642E
:100D40002D00312E556E6C6F636B20322E4C6F630D
:100D50006B00312E446F6F7220322E4C6F674F75CF
:100D6000740057726F6E672050617373776F72648F
:100D700000456E7465722050617373776F72640002
:100D80004F6E6C792074776F206B657973002D44FA
:100D90006F6F72204C6F636B65642D0057656C63D9
:100DA0006F6D6520557365722000416C61726D2016
:100DB0004465616374697600416C61726D204163C2
:100DC00074697665004120746F20476F4261636BE0
:100DD0000057686963682074656D700072616E67A2
:100DE0006520312D390042796520757365722000C8
:010DF0000002
:100DF200700ED36EB468B59E0F0EC16EF19E000EDA
:100E0200806E000E816E000E826E000E836E000EEA
:100E1200846E000E896E000E8A6E000E8B6E000EBE
:100E22008C6E000E8D6E000E926E030E936EF00E9F
:100E3200946E000E956E000E966ECDEC08F09BEC53
:100E420009F0200EA4EC09F0410AD8B415D0200E06
:100E5200A4EC09F0420AD8B40FD0200EA4EC09F099
:100E6200430AD8B409D0200EA4EC09F0440AD8B43D
:100E720003D078EC08F0E5D755EC09F0710E026E5C
:100E82000D0E036E2DEC09F0ADEC09F011EC09F03A
:100E9200E806D8B40BD0CFEC09F055EC09F0620E9D
:100EA200026E0D0E036E2DEC09F0CBD7809084906C
:100EB200CFEC09F055EC09F0AA0E026E0D0E036E8E
:100EC2002DEC09F0100E0A6E390E096E0E0EE82E88
:100ED200FED7092EFCD70A2EFAD7CFEC09F055EC33
:100EE20009F09C0E026E0D0E036E2DEC09F0200E21
:100EF200A4EC09F063EC09F0BEEC09F092EC09F005
:100F020088EC07F00B04D8B400EF00F0CFD7000E46
:100F12000B6E45EC09F0310AD8A44CD0CFEC09F0A5
:100F2200C4EC09F0420E026E0D0E036E2DEC09F0B8
:100F320045EC09F0310AD8A41CD0D6EC09F0CFEC6C
:100F420009F0C4EC09F0320E026E0D0E036E2DECA8
:100F520009F0BEEC09F0C50E026E0D0E036E2DEC0B
:100F620009F045EC09F0410AD8A4D1D7CFEC09F039
:100F7200120045EC09F0320AD8A4C9D7D9EC09F01D
:100F8200CFEC09F0C4EC09F08E0E026E0D0E036E6A
:100F92002DEC09F0BEEC09F0C50E026E0D0E036ECB
:100FA2002DEC09F045EC09F0410AD8A4B0D7CFECFA
:100FB20009F0120045EC09F0320AD8A4A8D7CFEC08
:100FC20009F055EC09F0E60E026E0D0E036E2DECE3
:100FD20009F0200EA4EC09F063EC09F0BEEC09F074
:100FE200B80E026E0D0E036E2DEC09F01A0E066E8F
:100FF2005E0E056E6E0EE82EFED7052EFCD7062E6F
:10100200FAD700D0010E0B6E12008B908B828D846A
:101012008B86410E016EEE0EE82EFED7012EFCD716
:1010220000D082B802D0310E120082BA02D0320E43
:10103200120082BC02D0330E120082BE02D0410ED8
:1010420012008B808B928D848B86410E016EEE0E88
:10105200E82EFED7012EFCD700D082B802D0340E83
:10106200120082BA02D0350E120082BC02D0360EB5
:10107200120082BE02D0420E12008B808B828D94AF
:101082008B86410E016EEE0EE82EFED7012EFCD7A6
:1010920000D082B802D0370E120082BA02D0380EC7
:1010A200120082BC02D0390E120082BE02D0430E60
:1010B20012008B808B828D848B96410E016EEE0E18
:1010C200E82EFED7012EFCD700D082B802D02A0E1D
:1010D200120082BA02D0300E120082BC02D0230E5D
:1010E200120082BE02D0440E1200FF0E1200000E49
:1010F200086E000E076E55EC09F0220E026E0D0E00
:10110200036E2DEC09F0BEEC09F0010E026E0D0E1D
:10111200036E2DEC09F0200E056E45EC09F087EC0C
:1011220009F0CFEC09F0C4EC09F0120E026E0D0EBC
:10113200036E2DEC09F0BEEC09F0800E026E0D0E6E
:10114200036E2DEC09F0010E056E45EC09F087ECFB
:1011520009F0074A082A085004E1020E075CD8A0E9
:10116200F2D7CFEC09F0C4EC09F0D10E026E0D0EED
:10117200036E2DEC09F0BEEC09F0DC0E026E0D0ED2
:10118200036E2DEC09F0400E056E45EC09F087EC7C
:1011920009F0CFEC09F012008096030E036E8A0E5E
:1011A200026E560EE82EFED7022EFCD7032EFAD779
:1011B200380E6FEC09F0030E036E8A0E026E560EA5
:1011C200E82EFED7022EFCD7032EFAD70F0E6FECB5
:1011D20009F055EC09F0010E6FEC09F055EC09F03D
:1011E2001200000E046E0250030BAA6E01C0A9FF8A
:1011F20003C0A8FFA69EA69CA684000EF2BE010E06
:10120200046EF29E550EA76EAA0EA76EA682A6B215
:10121200FED704B002D0F29E01D0F28EA694120044
:10122200000E066E010EA4EC09F0056E45EC09F005
:101232000518D8A402D0010E1200020E066007D0D3
:1012420045EC09F00518D8B402D0000E1200062AA7
:10125200010E0664E7D7120080820AD002C0F6FFB0
:1012620003C0F7FF0800F55063EC09F0024A032AB5
:1012720002C0F6FF03C0F7FF0800F5500009D8A42A
:10128200EDD755EC09F01200CAEC09F0026806EC41
:1012920008F0026E0228D8B4FAD706EC08F0FF0A6A
:1012A200D8A4FBD702501200956880928084808671
:1012B200B40E00D0E82EFDD7809683BEF8D7000E7C
:1012C200956E1200016E01C083FF80828094808639
:1012D200B40E00D0E82EFDD780961200016E01C038
:1012E20083FF809280948086B40E00D0E82EFDD7D2
:1012F200809612000250030BAA6E01C0A9FFA69CA1
:10130200A69EA68000F000F0A8501200066ED3EC54
:1013120009F005C001F0026A06C003F0F2EC08F021
:10132200120055EC09F0520E026E0D0E036E2DECFA
:1013320009F012009B0ECB6E2F0EBE6E070ECA6E08
:101342003C0EBD6E1200036E03C001F0026A7BEC1C
:1013520009F0046E04501200848081B2808045EC52
:1013620009F00009D8A41200F7D70B6A000EF86E34
:101372000D0EF76E0001F9EF06F0C00E6FEC09F0EA
:1013820055EC09F01200200E6FEC09F055EC09F053
:1013920012008B908B928D948B961200010E6FEC43
:1013A20009F01200A6A21200FDD75F0EBE6E120057
:0613B2001F0EBE6E1200CA
:020000040020DA
:08000000FFFFFFFFFFFFFFFF00
:020000040030CA
:0E000000FF081F1EFF8081FF0FC00FE00F40A2
:00000001FF
