:0400000077EF09F09D
:100D000000552050726566657220412042204320C4
:100D10004400496E74726F64756365205073737715
:100D200064005768696368206C6574746572206438
:100D30006F002D446F6F7220556E6C6F636B65642E
:100D40002D00312E556E6C6F636B20322E4C6F630D
:100D50006B00312E446F6F7220322E4C6F674F75CF
:100D6000740057726F6E672050617373776F72648F
:100D700000456E7465722050617373776F72640002
:100D80004F6E6C792074776F206B657973002D44FA
:100D90006F6F72204C6F636B65642D0057656C63D9
:100DA0006F6D65205573657220004120746F204778
:100DB0006F4261636B0057686963682074656D708A
:100DC0000072616E676520312D39004279652075AA
:100DD000736572200000000E096E0FEC09F0310AF5
:100DE000D8A44CD090EC09F085EC09F0420E026ECC
:100DF0000D0E036EF7EC08F00FEC09F0310AD8A4E1
:100E00001CD097EC09F090EC09F085EC09F0320E5B
:100E1000026E0D0E036EF7EC08F07FEC09F0AA0EDF
:100E2000026E0D0E036EF7EC08F00FEC09F0410AAC
:100E3000D8A4D1D790EC09F012000FEC09F0320AD7
:100E4000D8A4C9D79AEC09F090EC09F085EC09F028
:100E50008E0E026E0D0E036EF7EC08F07FEC09F0BB
:100E6000AA0E026E0D0E036EF7EC08F00FEC09F0FF
:100E7000410AD8A4B0D790EC09F012000FEC09F0A9
:100E8000320AD8A4A8D790EC09F01FEC09F0CB0ED9
:100E9000026E0D0E036EF7EC08F0200E6EEC09F0FA
:100EA0002DEC09F01A0E066E5E0E056E6E0EE82E23
:100EB000FED7052EFCD7062EFAD700D0010E096EFC
:100EC00012008B908B828D848B86410E016EEE0E0C
:100ED000E82EFED7012EFCD700D082B802D0310E0A
:100EE000120082BA02D0320E120082BC02D0330E3F
:100EF000120082BE02D0410E12008B808B928D8434
:100F00008B86410E016EEE0EE82EFED7012EFCD729
:100F100000D082B802D0340E120082BA02D0350E50
:100F2000120082BC02D0360E120082BE02D0420EE7
:100F300012008B808B828D948B86410E016EEE0E9B
:100F4000E82EFED7012EFCD700D082B802D0370E93
:100F5000120082BA02D0380E120082BC02D0390EC2
:100F6000120082BE02D0430E12008B808B828D84D1
:100F70008B96410E016EEE0EE82EFED7012EFCD7A9
:100F800000D082B802D02A0E120082BA02D0300EEF
:100F9000120082BC02D0230E120082BE02D0440E88
:100FA0001200FF0E1200700ED36EB468B59E0F0EC5
:100FB000C16E000E806E000E826E000E836E000EFB
:100FC000846E000E896E000E8B6E000E8C6E000E0D
:100FD0008D6E000E926EF00E946E000E956E000EE9
:100FE000966E97EC08F065EC09F0200E6EEC09F0B7
:100FF000410AD8B415D0200E6EEC09F0420AD8B4DC
:101000000FD0200E6EEC09F0430AD8B409D0200EA0
:101010006EEC09F0440AD8B403D042EC08F0E5D7EE
:101020001FEC09F0710E026E0D0E036EF7EC08F066
:10103000DBEC08F0E806D8B40BD090EC09F01FEC1C
:1010400009F0620E026E0D0E036EF7EC08F0CDD7BC
:1010500090EC09F01FEC09F09C0E026E0D0E036E71
:10106000F7EC08F0200E6EEC09F02DEC09F07FECA7
:1010700009F05CEC09F0EBEC06F00904D8B400EFE1
:1010800000F0E6D7000E086E000E076E1FEC09F0A8
:10109000220E026E0D0E036EF7EC08F07FEC09F0E5
:1010A000010E026E0D0E036EF7EC08F0200E056EB9
:1010B0000FEC09F051EC09F090EC09F085EC09F027
:1010C000120E026E0D0E036EF7EC08F07FEC09F0C5
:1010D000800E026E0D0E036EF7EC08F0010E056E29
:1010E0000FEC09F051EC09F0074A082A085004E116
:1010F000020E075CD8A0F2D790EC09F085EC09F05D
:10110000B60E026E0D0E036EF7EC08F07FEC09F0E0
:10111000C10E026E0D0E036EF7EC08F0400E056E68
:101120000FEC09F051EC09F090EC09F012008096F8
:10113000030E036E8A0E026E560EE82EFED7022EA6
:10114000FCD7032EFAD7380E39EC09F0030E036EE4
:101150008A0E026E560EE82EFED7022EFCD7032E04
:10116000FAD70F0E39EC09F01FEC09F0010E39EC3B
:1011700009F01FEC09F01200000E046E0250030B80
:10118000AA6E01C0A9FF03C0A8FFA69EA69CA684C4
:10119000000EF2BE010E046EF29E550EA76EAA0E50
:1011A000A76EA682A6B2FED704B002D0F29E01D0EE
:1011B000F28EA6941200000E066E010E6EEC09F07F
:1011C000056E0FEC09F00518D8A402D0010E12002C
:1011D000020E066007D00FEC09F00518D8B402D053
:1011E000000E1200062A010E0664E7D71200808264
:1011F0000AD002C0F6FF03C0F7FF0800F5502DEC3F
:1012000009F0024A032A02C0F6FF03C0F7FF0800F4
:10121000F5500009D8A4EDD71FEC09F012008BECB3
:1012200009F0026861EC07F0026E0228D8B4FAD720
:1012300061EC07F0FF0AD8A4FBD7025012009568B2
:10124000809280848086B40E00D0E82EFDD78096F0
:1012500083BEF8D7000E956E1200016E01C083FFA9
:10126000808280948086B40E00D0E82EFDD78096D0
:101270001200016E01C083FF809280948086B40EBC
:1012800000D0E82EFDD7809612000250030BAA6E04
:1012900001C0A9FFA69CA69EA68000F000F0A85061
:1012A0001200066E94EC09F005C001F0026A06C057
:1012B00003F0BCEC08F012001FEC09F0520E026EB5
:1012C0000D0E036EF7EC08F012009B0ECB6E2F0E86
:1012D000BE6E070ECA6E3C0EBD6E1200036E03C0DA
:1012E00001F0026A45EC09F0046E04501200096A2C
:1012F000000EF86E0D0EF76E0001D3EF07F0C00E72
:1013000039EC09F01FEC09F01200200E39EC09F05D
:101310001FEC09F012008B908B928D948B9612002B
:10132000010E39EC09F01200A6A21200FDD75F0EE3
:0A133000BE6E12001F0EBE6E12000A
:020000040020DA
:08000000FFFFFFFFFFFFFFFF00
:020000040030CA
:0E000000FF081F1EFF8081FF0FC00FE00F40A2
:00000001FF
